S01B00006D617833313836355F6C69625F7365747475702E7372656322
S11300000C94B5000C94D2000C94D2000C94D20041
S11300100C94D2000C94D2000C94D2000C94D20014
S11300200C94D2000C94D2000C94D2000C94D20004
S11300300C94D2000C94D2000C94D2000C94D200F4
S11300400C94D2000C9431010C94B6010C94DD0193
S11300500C9404020C94D2000C94D2000C94D200A0
S11300600C94D2000C94D2006E616E00696E66002E
S113007000407A10F35A00A0724E18090010A5D45B
S1130080E80000E87648170000E40B54020000CAB8
S11300909A3B000000E1F5050000809698000000FE
S11300A040420F000000A08601000000102700005D
S11300B00000E803000000006400000000000A00E3
S11300C0000000000100000000002C76D888DC67E6
S11300D04F0823DFC1DFAE59E1B1B796E5E3E4533E
S11300E0C63AE651997696E8E6C28426EB898C9B5B
S11300F062ED407C6FFCEFBC9C9F40F2BAA56FA5FB
S1130100F490055A2AF75C936B6CF9676DC11BFC7C
S1130110E0E40D47FEF520E6B500D0ED902E030097
S1130120943577050080841E080000204E0A0000E4
S113013000C80C333333330F986E12831141EF8DA3
S11301402114893BE65516CFFEE6DB18D1844B38E3
S11301501BF77C1D901DA4BBE424203284725E2214
S11301608100C9F124ECA1E53D2711241FBECFEF86
S1130170D8E0DEBFCDBF11E0A0E0B1E0ECEAFCE1E5
S113018002C005900D92AC39B107D9F721E0ACE972
S1130190B1E001C01D92A23AB207E1F70E946B02DE
S11301A00C94540E0C9400000895E4E6F0E0808171
S11301B08B7F808308958CB580648CBD08959CB535
S11301C09F7D9CBD2CB530E2839FC0011124822BFE
S11301D08CBD08959CB59F7E9CBD9CB540E1849FD9
S11301E090011124292B2CBD813031F484B18C620F
S11301F084B924982A980895811104C084B1837D18
S113020084B9249A08959CB5977F9CBD2CB538E099
S1130210839FC0011124822B8CBD08959CB59B7FC4
S11302209CBD2CB534E0839FC0011124822B8CBD6E
S113023008959CB59C7F9CBD9CB5282F2370922B60
S11302409CBD9DB586958695892B8DBD08958EBDE3
S11302500DB407FEFDCF8EB508958CB58F778CBD98
S113026008951F920F920FB60F9211242F933F936C
S11302704F935F936F937F938F939F93AF93BF93AA
S1130280EF93FF93E0910001F09101010995FF9133
S1130290EF91BF91AF919F918F917F916F915F91FA
S11302A04F913F912F910F900FBE0F901F90189573
S11302B00895E4E6F0E080818D7F80830895E1EC89
S11302C0F0E08081886080830895E1ECF0E0908123
S11302D09B7F9083E2ECF0E09081997F9083908102
S11302E08370880F982B90830895DC01CB01880FCD
S11302F0991FAA1FBB1F880F991FAA1FBB1F9C0110
S1130300AD01220F331F441F551F220F331F441FFB
S1130310551F60E074E284EF90E00E94510C8FEF6F
S1130320820F8093C400DA01C9010197A109B109C0
S1130330892F9A2FAB2FBB278093C5000895E0EC3B
S1130340F0E0908195FFFDCF8093C6000895CF9390
S1130350DF93EC018881882331F021960E949F016C
S113036089918111FBCFDF91CF9108951F920F9254
S11303700FB60F9211242F933F934F935F936F9374
S11303807F938F939F93AF93BF93EF93FF93E091EA
S11303900601F09107010995FF91EF91BF91AF918B
S11303A09F918F917F916F915F914F913F912F9189
S11303B00F900FBE0F901F9018951F920F920FB6BB
S11303C00F9211242F933F934F935F936F937F93D7
S11303D08F939F93AF93BF93EF93FF93E0910401A7
S11303E0F09105010995FF91EF91BF91AF919F9114
S11303F08F917F916F915F914F913F912F910F90CA
S11304000FBE0F901F9018951F920F920FB60F9268
S113041011242F933F934F935F936F937F938F9305
S11304209F93AF93BF93EF93FF93E0910201F091F9
S113043003010995FF91EF91BF91AF919F918F9126
S11304407F916F915F914F913F912F910F900FBECC
S11304500F901F90189528980895289A08958FE36F
S11304609FE10197F1F700C0000008952FE783E1B1
S113047093E0215080409040E1F700C000000895CF
S1130480F8940E9459010E945F0183E00E94650173
S113049060E875E280E090E00E9475017894089528
S11304A0209A289A0895F8940E94D5000E942D015C
S11304B081E00E94EA0083E00E94190180E00E942A
S11304C0DF0080E00E94030181E00E940E010E948F
S11304D0DB0078940895CF93DF93CDB7DEB7C1578F
S11304E0D1090FB6F894DEBF0FBECDBF0E945002F3
S11304F087E291E00E94DA048FE292E00E94DF0436
S113050086E392E00E94E40484E690E09E838D8377
S11305108EEA91E098878F831A8619868FEF9FEF72
S11305209C878B8781E18D878BE292E09A83898314
S11305308DE292E09C838B830E94400286E0E8E097
S1130540F1E0DE011E9601900D928A95E1F7CE014D
S11305500E960E94A7018FE1EEE0F1E0DE011E9607
S113056001900D928A95E1F7CE010E960E94A701A3
S11305700E945302C980DA80EB80FC800D811E81C9
S11305802F81388549855A856B857C858D850E94A8
S1130590E9045E012EE0A20EB11C0F2EF3E56F2ECE
S11305A0F1E07F2EF02D0F2EFDE58F2EF1E09F2E32
S11305B0F02D0F2EF7E64F2EF1E05F2EF02D0F2ECB
S11305C0F5E72F2EF1E03F2EF02D86E2EDE2F1E08B
S11305D0D50101900D928A95E1F7C5010E94A7010A
S11305E0C980DA80EB80FC800D811E812F813885E3
S11305F049855A856B857C858D850E944E059F9320
S11306008F937F926F92BF92AF920E94D40DC501D7
S11306100E94A701C980DA80EB80FC800D811E81D5
S11306202F81388549855A856B857C858D850E9407
S1130630E5059F938F937F936F939F928F92BF92C1
S1130640AF920E94D40DC5010E94A701C980DA802F
S1130650EB80FC800D811E812F81388549855A8568
S11306606B857C858D850E9422069F938F937F9353
S11306706F935F924F92BF92AF920E94D40DC501C7
S11306800E94A701C980DA80EB80FC800D811E8165
S11306902F81388549855A856B857C858D850E9497
S11306A013079F938F937F936F933F922F92BF92E1
S11306B0AF920E94D40DC5010E94A701C980DA80BF
S11306C0EB80FC800D811E812F81388549855A85F8
S11306D06B857C858D850E9422069F938F937F93E3
S11306E06F9382E891E09F938F93BF92AF920E94A1
S11306F0D40D0FB6F894DEBF0FBECDBFC5010E9466
S1130700A701C980DA80EB80FC800D811E812F81D6
S1130710388549855A856B857C858D850E943A0785
S1130720282F082E000C330B3F938F9387E891E01A
S11307309F938F93BF92AF920E94D40DC5010E94E4
S1130740A7018FEF99E628E1815090402040E1F71E
S113075000C000000F900F900F900F900F900F901B
S113076034CF8F929F92AF92CF92DF92EF92FF920B
S11307700F931F93CF93DF93CDB7DEB72D970FB6AB
S1130780F894DEBF0FBECDBFC982DA82EB82FC8251
S1130790DB8CDD2029F17401E981FA810995E0916E
S11307A0A001F091A1018A2D90E00995840199247A
S11307B09A949D0C892D90E001964701880E991E0C
S11307C0E091A001F091A1018FEF90E00995F8016B
S11307D081938F01E815F90599F7EB81FC8109955F
S11307E02D960FB6F894DEBF0FBECDBFDF91CF912B
S11307F01F910F91FF90EF90DF90CF90AF909F905B
S11308008F9008958F929F92AF92CF92DF92EF9242
S1130810FF920F931F93CF93DF93CDB7DEB72E973D
S11308200FB6F894DEBF0FBECDBFCA82DB82EC8266
S1130830FD820E831F83288739874A875B876C87ED
S11308407D878E87198281E08F93CE0101964C01BA
S1130850CA80DB80EC80FD800E811F81288539856C
S11308604A855B856C857D858E850E94B1030F90DA
S113087089812E960FB6F894DEBF0FBECDBFDF91EF
S1130880CF911F910F91FF90EF90DF90CF90AF9099
S11308909F908F9008958F929F92AF92CF92DF9204
S11308A0EF92FF920F931F93CF93DF93CDB7DEB7F1
S11308B02D970FB6F894DEBF0FBECDBFC982DA8282
S11308C0EB82FC820B8DE981FA810995E091A0010C
S11308D0F091A1018A2D90E0099580E011E0180FB4
S11308E0F401E80FF11D8081E091A001F091A101D4
S11308F090E00995812F0113F1CFEB81FC810995DB
S11309002D960FB6F894DEBF0FBECDBFDF91CF9109
S11309101F910F91FF90EF90DF90CF90AF909F9039
S11309208F9008958F929F92AF92CF92DF92EF9221
S1130930FF920F931F93CF93DF93CDB7DEB72E971C
S11309400FB6F894DEBF0FBECDBFC982DA82EB8248
S1130950FC820D831E832F83388749875A876B87D0
S11309607C878D878E8681E08F93CE010E964C0115
S1130970C980DA80EB80FC800D811E812F8138854F
S113098049855A856B857C858D850E944B040F9023
S11309902E960FB6F894DEBF0FBECDBFDF91CF9178
S11309A01F910F91FF90EF90DF90CF90AF909F90A9
S11309B08F9008959093A1018093A001089590933E
S11309C09F0180939E01089590939D0180939C01C3
S11309D008953F924F925F926F927F928F929F926F
S11309E0AF92BF92CF92DF92EF92FF920F931F9339
S11309F0CF93DF93CDB7DEB761970FB6F894DEBF20
S1130A000FBECDBFCD82DE82EF82F88609871A87BA
S1130A102B873C87B42E4D87952E5E87762E6F8765
S1130A20672E788B882E898B6894AA24A7F80E9455
S1130A30920469827A829B82BC8284E08F93CE0185
S1130A4001964C010F2EF3E8AF2EF02DCD80DE8001
S1130A50EF80F88409851A852B853C854D855E8554
S1130A606F85788989890E944B040F9061960FB62F
S1130A70F894DEBF0FBECDBFDF91CF911F910F91D0
S1130A80FF90EF90DF90CF90BF90AF909F908F90AA
S1130A907F906F905F904F903F9008952F923F9278
S1130AA04F925F926F927F928F929F92AF92BF927A
S1130AB0CF92DF92EF92FF920F931F93CF93DF9326
S1130AC0CDB7DEB72F970FB6F894DEBF0FBECDBFFC
S1130AD0CB82DC82ED82FE820F83188729873A87D6
S1130AE04B875C876D877E878F87B82E8068882EBA
S1130AF06894AA24A7F88B2D0E949204E0919E0189
S1130B00F0919F0109959B2D906A892ECB80DC8002
S1130B10ED80FE800F81188529853A854B855C859B
S1130B206D857E858F850E949204E0919C01F091F1
S1130B309D01099582E08F93CE0101964C01AA2470
S1130B40A394CB80DC80ED80FE800F8118852985FD
S1130B503A854B855C856D857E858F850E94B103C2
S1130B608B2C6894AA24A7F8CB80DC80ED80FE80CF
S1130B700F81188529853A854B855C856D857E8531
S1130B808F850E949204898190E0982F88272A817A
S1130B90822B0F90969587952F960FB6F894DEBF0B
S1130BA00FBECDBFDF91CF911F910F91FF90EF90BA
S1130BB0DF90CF90BF90AF909F908F907F906F9079
S1130BC05F904F903F902F900895CF92DF92EF92D5
S1130BD0FF920F931F93CF93DF93CDB7DEB72D977B
S1130BE00FB6F894DEBF0FBECDBF2F8338870E94A7
S1130BF04E058C016F81788580E090E00E94D907D2
S1130C006B017C01B80180E090E00E94D9079B0150
S1130C10AC01C701B6010E94670820E030E040E063
S1130C2058E30E9467082D960FB6F894DEBF0FBEF6
S1130C30CDBFDF91CF911F910F91FF90EF90DF9087
S1130C40CF9008954F925F926F927F928F929F926E
S1130C50AF92BF92CF92DF92EF92FF920F931F93C6
S1130C60CF93DF93CDB7DEB7AD970FB6F894DEBF61
S1130C700FBECDBFC98EDA8EEB8EFC8E0D8F1E8F0C
S1130C802F8F38A349A35AA36BA37CA38DA30E94DF
S1130C90E50569837A838B839C83C980DA80EB8042
S1130CA0FC806D8D7E8D80E090E00E94D907A701C5
S1130CB096010E946C076D837E838F8398876D8174
S1130CC07E818F8198852D813E814F8158850E9438
S1130CD0670869877A878B879C8769857A858B857E
S1130CE09C852D813E814F8158850E9467086D87C0
S1130CF07E878F87988B69857A858B859C852985E6
S1130D003A854B855C850E946708698B7A8B8B8B4F
S1130D109C8B69897A898B899C892D813E814F813D
S1130D2058850E9467086D8B7E8B8F8B988F6D81A1
S1130D307E818F81988549845A846B847C84CD8498
S1130D40DE84EF84F88829893A894B895C892EA34B
S1130D503FA348A759A78D889E88AF88B88C2AE0FE
S1130D6031EC43E250E40E9467086AA77BA78CA792
S1130D709DA725E736E94DE75AE3C301B2010E9476
S1130D8067089B01AC016AA57BA58CA59DA50E9463
S1130D906D072B013C0128E03AE544E455E3C70123
S1130DA0B6010E9467089B01AC01C301B2010E9415
S1130DB06D076B017C012DEC30EF4DE350E36EA128
S1130DC07FA188A599A50E9467089B01AC01C70172
S1130DD0B6010E946D076B017C0121E232E04EE412
S1130DE05BE2C501B4010E9467089B01AC01C70125
S1130DF0B6010E946D079058AD960FB6F894DEBF09
S1130E000FBECDBFDF91CF911F910F91FF90EF9057
S1130E10DF90CF90BF90AF909F908F907F906F9016
S1130E205F904F900895CF92DF92EF92FF920F93CD
S1130E301F93CF93DF93CDB7DEB72D970FB6F894FA
S1130E40DEBF0FBECDBF0E94220623E333E948E88C
S1130E5053E40E946D072D960FB6F894DEBF0FBEC3
S1130E60CDBFDF91CF911F910F91FF90EF90DF9055
S1130E70CF900895AF92CF92DF92EF92FF920F93AB
S1130E801F93CF93DF93CDB7DEB72D970FB6F894AA
S1130E90DEBF0FBECDBF0F2EF7E0AF2EF02D0E94A8
S1130EA00204807C31F090E08078892B21F48FEF6C
S1130EB003C080E001C081E02D960FB6F894DEBF38
S1130EC00FBECDBFDF91CF911F910F91FF90EF9097
S1130ED0DF90CF90AF9008955058BB27AA270E9467
S1130EE084070C942D080E941F0838F00E942608DD
S1130EF020F039F49F3F19F426F40C941C080EF4E6
S1130F00E095E7FB0C941608E92F0E943E0858F37D
S1130F10BA17620773078407950720F079F4A6F5DA
S1130F200C9460080EF4E0950B2EBA2FA02D0B0143
S1130F30B90190010C01CA01A0011124FF27591B1A
S1130F4099F0593F50F4503E68F11A16F040A22F20
S1130F50232F342F4427585FF3CF46953795279591
S1130F60A795F0405395C9F77EF41F16BA0B620B90
S1130F70730B840BBAF09150A1F0FF0FBB1F661FD7
S1130F80771F881FC2F70EC0BA0F621F731F841F1A
S1130F9048F4879577956795B795F7959E3F08F040
S1130FA0B0CF9395880F08F09927EE0F9795879502
S1130FB00895E89409C097FB3EF490958095709548
S1130FC061957F4F8F4F9F4F9923A9F0F92F96E991
S1130FD0BB279395F695879577956795B795F11106
S1130FE0F8CFFAF4BB0F11F460FF1BC06F5F7F4FA3
S1130FF08F4F9F4F16C0882311F096E911C07723B5
S113100021F09EE8872F762F05C0662371F096E8BD
S1131010862F70E060E02AF09A95660F771F881F8C
S1131020DAF7880F9695879597F9089597F99F674A
S113103080E870E060E008959FEF80EC089500245C
S11310400A941616170618060906089500240A9429
S113105012161306140605060895092E0394000CAF
S113106011F4882352F0BB0F40F4BF2B11F460FF3E
S113107004C06F5F7F4F8F4F9F4F089557FD905867
S1131080440F551F59F05F3F71F04795880F97FB48
S1131090991F61F09F3F79F0879508951216130602
S11310A01406551FF2CF4695F1DF08C01616170631
S11310B01806991FF1CF8695710561050894089566
S11310C0E894BB2766277727CB0197F908950E94F8
S11310D07A080C942D080E941F0838F00E942608F4
S11310E020F0952311F00C9416080C941C0811247C
S11310F00C9461080E943E0870F3959FC1F3950F0C
S113110050E0551F629FF001729FBB27F00DB11D87
S1131110639FAA27F00DB11DAA1F649F6627B00D17
S1131120A11D661F829F2227B00DA11D621F739F00
S1131130B00DA11D621F839FA00D611D221F749F0E
S11311403327A00D611D231F849F600D211D822F55
S1131150762F6A2F11249F5750409AF0F1F088237C
S11311604AF0EE0FFF1FBB1F661F771F881F9150A9
S11311705040A9F79E3F510580F00C9416080C943A
S113118061085F3FE4F3983ED4F3869577956795BD
S1131190B795F795E7959F5FC1F7FE2B880F911DD3
S11311A09695879597F90895A0E1B0E0EAEDF8E007
S11311B00C94730C7C011B016A01FC0117821682DA
S11311C0838181FF44C39E012F5F3F4F3901F701A3
S11311D09381F10193FD859193FF81911F018823F0
S11311E009F431C3853239F493FD859193FF8191DC
S11311F01F01853239F4B70190E00E94980D560121
S11312006501E5CF10E0512C912CFFE1F915D8F0E0
S11312108B3279F038F4803279F08332A1F4F92DED
S1131220F0612EC08D3261F0803369F4292D216084
S11312302DC0392D3260932E892D8460982E2AC0BA
S1131240E92DE86015C097FC2DC020ED280F2A3049
S113125088F496FE06C03AE0139F200D1124122F45
S113126019C08AE0589E200D1124522EE92DE06207
S11312709E2E10C08E3231F496FCE5C2F92DF06436
S11312809F2E08C08C3621F4292D2068922E02C08E
S1131290883641F4F10193FD859193FF81911F01FB
S11312A08111B3CF9BEB980F933020F4992D90616B
S11312B0805E07C09BE9980F933008F066C1992DB2
S11312C09F7E96FF16E09F73992E853619F49064DD
S11312D0992E08C0863621F4392F3068932E02C027
S11312E01111115097FE07C01C3350F44424439449
S11312F0410E27E00BC0183038F027E017E005C096
S113130027E09CE3492E02C0212F412C560184E0A2
S1131310A80EB11CF6016081718182819381042D34
S1131320A3010E94AA0C6C01F981FC87F0FF02C0A2
S1131330F3FF06C091FC06C092FE06C000E205C0A1
S11313400DE203C00BE201C000E08C858C7019F043
S113135001115AC29BC297FE10C04C0CFC85F4FFCD
S113136004C08A81813309F44A94141474F528E082
S1131370241578F588E0482E2CC096FC2AC0812FCD
S113138090E08C159D059CF03CEFC3163FEFD3060F
S113139074F0892D8068982E0AC0E2E0F0E0EC0F2A
S11313A0FD1FE10FF11D8081803319F411501111DB
S11313B0F4CF97FE0EC044244394410E812F90E055
S11313C0C816D9062CF41C1904C04424439401C043
S11313D010E097FE06C01C141D0434F4C6010196E7
S11313E005C085E090E002C081E090E00111019623
S11313F0112331F0212F30E02F5F3F4F820F931FD5
S1131400252D30E08217930714F4581A01C0512C8B
S1131410892D897049F4552039F0B70180E290E0B4
S11314200E94980D5A94F7CF002329F0B701802F1A
S113143090E00E94980D93FC09C0552039F0B70143
S113144080E390E00E94980D5A94F7CF97FE4CC029
S11314504601D7FE02C0812C912CC6018819990936
S1131460F301E80FF91FFE87ED879601241931096E
S1131470388B2F87012F10E01195019511093FEF4B
S11314808316930629F4B7018EE290E00E94980D2A
S1131490C814D9044CF08F8598898815990524F4CB
S11314A0ED85FE85818101C080E3F1E08F1A91080A
S11314B02D853E852F5F3F4F3E872D8780169106F1
S11314C02CF0B70190E00E94980DD9CFC814D9042C
S11314D041F49A81963320F4953319F43C8534FF12
S11314E081E3B70190E04EC08A81813319F09C8575
S11314F09F7E9C87B70190E00E94980D111105C052
S113150094FC18C085E690E017C0B7018EE290E025
S11315100E94980D1E5F82E001E0080FF301E80FBE
S1131520F11D8081B70190E00E94980D802F011376
S1131530F3CFE6CF85E490E0B7010E94980DD7FC85
S113154006C0C114D10441F4EC85E4FF05C0D19474
S1131550C194D1088DE201C08BE2B70190E00E94F2
S1131560980D80E32AE0C216D1042CF08F5FFAE0D4
S1131570CF1AD108F7CFB70190E00E94980DB701B8
S1131580C601C0960E94980D54C1833631F083374A
S113159079F0833509F056C020C0560132E0A30E1D
S11315A0B11CF6018081898301E010E0630112C05F
S11315B05601F2E0AF0EB11CF601C080D18096FE58
S11315C003C0612F70E002C06FEF7FEFC6010E947D
S11315D08D0D8C01F92DFF7714C0560122E0A20E67
S11315E0B11CF601C080D18096FE03C0612F70E06B
S11315F002C06FEF7FEFC6010E94820D8C01F92DAE
S1131600F0689F2EF3FD1AC0852D90E00817190786
S1131610A8F4B70180E290E00E94980D5A94F4CFA8
S1131620F60197FC859197FE81916F01B70190E0D7
S11316300E94980D51105A94015011090115110579
S113164079F7F7C0843611F0893661F5560197FEB3
S113165009C024E0A20EB11CF6016081718182816F
S113166093810AC0F2E0AF0EB11CF6016081718172
S1131670072E000C880B990BF92DFF769F2E97FFF0
S113168009C090958095709561957F4F8F4F9F4FBE
S1131690F0689F2E2AE030E0A3010E94F60DC82EC8
S11316A0C6183FC0092D853721F40F7E2AE030E0AB
S11316B01DC0097F8F3691F018F4883559F0C3C0E6
S11316C0803719F0883711F0BEC0006104FF09C0EB
S11316D0046007C094FE08C0066006C028E030E03D
S11316E005C020E130E002C020E132E0560107FFEE
S11316F009C084E0A80EB11CF60160817181828169
S1131700938108C0F2E0AF0EB11CF60160817181D3
S113171080E090E0A3010E94F60DC82EC6180F7752
S1131720902E96FE0BC0092D0E7FC11650F494FE28
S11317300AC092FC08C0092D0E7E05C0DC2C092DC0
S113174003C0DC2C01C0D12E04FF0DC0FE01EC0D42
S1131750F11D8081803311F4097E09C002FF06C0A7
S1131760D394D39404C0802F867809F0D39403FDD6
S113177011C000FF06C01C2DD51480F4150D1D19D1
S11317800DC0D51458F4B70180E290E00E94980D82
S1131790D394F7CFD51410F45D1801C0512C04FF75
S11317A010C0B70180E390E00E94980D02FF17C0BB
S11317B001FD03C088E790E002C088E590E0B7012E
S11317C00CC0802F867859F001FF02C08BE201C063
S11317D080E207FD8DE2B70190E00E94980DC116EA
S11317E038F4B70180E390E00E94980D1150F7CFD0
S11317F0CA94F301EC0DF11D8081B70190E00E94C1
S1131800980DC110F5CF15C0F4E0F51560F584E02E
S1131810581A93FE1FC0011127C02C8523FF2AC02C
S113182008E610E0392D3071932EF801849181116E
S113183024C0552009F4E4CCB70180E290E00E9472
S1131840980D5A94F6CFF7018681978126C08FEFC1
S11318509FEF23C0B70180E290E00E94980D5A9454
S11318605110F8CFD8CF512CB701802F90E00E94AF
S1131870980DD3CF0CE610E0D5CF91108052B7016C
S113188090E00E94980D0F5F1F4FCFCF23E02515E6
S113189010F483E0BDCF512CC0CF6096E2E10C94EC
S11318A08F0CA1E21A2EAA1BBB1BFD010DC0AA1F9F
S11318B0BB1FEE1FFF1FA217B307E407F50720F0B5
S11318C0A21BB30BE40BF50B661F771F881F991F30
S11318D01A9469F760957095809590959B01AC0179
S11318E0BD01CF0108952F923F924F925F926F9264
S11318F07F928F929F92AF92BF92CF92DF92EF929C
S1131900FF920F931F93CF93DF93CDB7DEB7CA1B1C
S1131910DB0B0FB6F894DEBF0FBECDBF09942A8847
S1131920398848885F846E847D848C849B84AA84EF
S1131930B984C884DF80EE80FD800C811B81AA817C
S1131940B981CE0FD11D0FB6F894DEBF0FBECDBF47
S1131950ED010895283008F027E03327DA01990FC4
S1131960311D87FD916000966105710539F432607F
S11319702E5F3D9330E32A95E1F708959F3F30F0C1
S113198080387105610509F03C5F3C5F3D939130FF
S113199008F08068911DDF93CF931F930F93FF92FC
S11319A0EF92192F987F9695E92F96959695E90FC2
S11319B0FF27E653FF4F99273327EE24FF24A7017F
S11319C0E70105900894079428F4360FE71EF81EE3
S11319D0491F511D660F771F881F991F0694A1F791
S11319E00590079428F4E70EF81E491F561FC11DE1
S11319F0770F881F991F661F0694A1F70590079417
S1131A0028F4F80E491F561FC71FD11D880F991FB0
S1131A10661F771F0694A1F70590079420F4490FD9
S1131A20561FC71FD81F990F661F771F881F06945C
S1131A30A9F784911095177041F0D695C7955795DD
S1131A404795F794E7941A95C1F7E0E7F0E06894B6
S1131A501590159135916591959105907FE2739557
S1131A60E118F10A430B560BC90BD009C0F7E10C7E
S1131A70F11E431F561FC91FD01D7EF4703311F48D
S1131A808A95E6CFE894015030F0080F0AF4002755
S1131A90021708F4202F2395022F7A3328F079E3D4
S1131AA07D932A95E9F710C07D932A9589F60694CB
S1131AB097956795379517951794E118F10A430B95
S1131AC0560BC90BD00998F023957E9173957A3300
S1131AD008F070E37C932013B8F77E9170617D93D6
S1131AE030F0839571E37D9370E32A95E1F7112437
S1131AF0EF90FF900F911F91CF91DF91992787FD70
S1131B0090950895FC010590615070400110D8F73C
S1131B10809590958E0F9F1F0895FC016150704031
S1131B2001900110D8F7809590958E0F9F1F08950E
S1131B300F931F93CF93DF93FB01238121FD03C0F8
S1131B408FEF9FEF2CC022FF16C04681578124815E
S1131B5035814217530744F4A081B1819D012F5F61
S1131B603F4F318320838C93268137812F5F3F4FF2
S1131B703783268314C08B01EC01FB010084F185BB
S1131B80E02D0995892BE1F6D80116968D919C914B
S1131B901797019617969C938E931697CE01DF9113
S1131BA0CF911F910F910895AEE0B0E0EAEDFDE012
S1131BB00C94810C0D891E8986E08C831A83098319
S1131BC08FEF9FE79E838D83AE01475E5F4F6F89E2
S1131BD0788DCE0101960E94D408EF81F885E00F3C
S1131BE0F11F10822E96E4E00C949D0CFA01AA27B2
S1131BF0283051F1203181F1E8946F936E7F6E5F4C
S1131C007F4F8F4F9F4FAF4FB1E03ED0B4E03CD0F9
S1131C10670F781F891F9A1FA11D680F791F8A1FDC
S1131C20911DA11D6A0F711D811D911DA11D20D043
S1131C3009F468943F912AE0269F11243019305DFD
S1131C403193DEF6CF010895462F4770405D4193EE
S1131C50B3E00FD0C9F7F6CF462F4F70405D4A333B
S1131C6018F0495D31FD4052419302D0A9F7EACF03
S1131C70B4E0A6959795879577956795BA95C9F732
S1131C8000976105710508959B01AC010A2E069425
S1131C905795479537952795BA95C9F7620F731FDE
S10F1CA0841F951FA01D0895F894FFCF29
S1131CACD4005801580158011B5B324A0D00507284
S1131CBC6F6772616D3A206D617833313836355FF8
S1131CCC6C69625F7365747475700A0D000A0D2D6E
S1131CDC2D2D2D2D2D2D2D2D2D2D2D2D2D2D2D2D24
S1131CEC2D2D2D2D2D2D2D2D2D2D2D2D2D2D2D2D14
S1131CFC2D2D000A0D6164633A202575000A0D72BE
S1131D0C74643A202566000A0D43656C7369757317
S1131D1C3A202566000A0D4B656C76696E3A2025CF
S1131D2C66000A0D2566000A0D5468726573686FA7
S10F1D3C6C64204661756C743A256400E8
S9030000FC
